:107E0000112484B714BE81FFE7D082E08093C000C4
:107E100088E18093C10086E08093C20080E1809376
:107E2000C4008EE0C3D0259ACC24C394F5E0DF2EA5
:107E3000E1E1EE2E73E0F72EADD0813489F4AAD0C3
:107E40008983BAD08981823819F484E09CD098C0A3
:107E5000813819F484E097D093C083E094D090C027
:107E6000823419F484E1B0D08BC0853419F485E0F4
:107E7000ABD086C0853569F48DD0082F10E08AD04C
:107E800090E0982E8824802A912A880C991C94D0FE
:107E900077C0863529F484E097D080E074D070C034
:107EA000843609F043C076D075D0B82E73D080E008
:107EB000881688E3980630F4F401F7BEE89500E0F0
:107EC00011E002C000E011E065D0F80181938F015C
:107ED000BE16D1F7F0E08F16F8E39F0618F0F40114
:107EE000F7BEE89569D007B600FCFDCFF401A0E02D
:107EF000B1E02C9130E011968C91119790E0982F81
:107F00008827822B932B12960C01C7BEE89511246B
:107F1000329681E0A038B80761F7F401D7BEE89542
:107F200007B600FCFDCFE7BEE8952AC08437B9F458
:107F300031D030D0A82E2ED03FD0BA2CF40101C0C1
:107F4000F8018F010F5F1F4F84911DD0BA94C1F7C4
:107F50000894811C911CAA948A0C911C11C085372D
:107F600041F42AD08EE10FD085E90DD08FE00BD0FF
:107F700007C0813521F488E019D01ED001C01CD083
:107F800080E101D059CF9091C00095FFFCCF809344
:107F9000C60008958091C00087FFFCCF8091C0008B
:107FA00084FD01C0A8958091C6000895E0E6F0E048
:107FB00098E1908380830895EDDF803219F088E0A6
:107FC000F5DFFFCF84E1DFCF1F93182FE3DF1150E0
:107FD000E9F7F2DF1F91089580E0E8DFEE27FF2741
:027FE000099402
:027FFE00040479
:0400000300007E007B
:00000001FF
