:107E000011248FE598E09EBF8DBF84B714BE81FF1B
:107E1000E1D085E08EBD82E08BB988E18AB986E841
:107E200080BD80E189B98EE0C1D0BD9A96E020E3A3
:107E30003CEF54E040E23DBD2CBD58BF08B602FE09
:107E4000FDCF88B3842788BBA8959150A1F7CC2497
:107E5000DD2499249394B5E08B2EA1E1AA2EF3E0C2
:107E6000BF2E9DD0813461F49AD0082FA3D0023860
:107E700011F0013811F484E001C083E08CD088C097
:107E8000823411F484E103C0853419F485E09AD07A
:107E90007FC0853579F483D0E82EFF2480D0082F69
:107EA00010E0102F00270E291F29000F111F82D06C
:107EB00068016EC0863521F484E084D080E0DECF96
:107EC000843609F03FC06BD06AD0082F68D080E0BC
:107ED000C81688E3D80618F4F601B7BEE895C0E6E0
:107EE000D0E05DD089930150E1F7F0E0CF16F8E3E0
:107EF000DF0618F0F601B7BEE8955CD007B600FCC7
:107F0000FDCFA601A0E6B0E02C9130E011968C9157
:107F1000119790E0982F8827822B932B1296FA01C5
:107F20000C0197BEE89511244E5F5F4FA03EB1054E
:107F300059F7F60187BEE89507B600FCFDCFA7BE4E
:107F4000E89526C08437B1F42AD029D0F82E27D05E
:107F500031D0F601EF2C8F010F5F1F4F84911BD0A2
:107F6000EA94F801C1F70894C11CD11CFA94CF0C13
:107F7000D11C0EC0853739F41DD08EE10CD085E9B7
:107F80000AD082E07BCF813511F488E00FD012D087
:107F900080E101D066CF5D9BFECF8CB908955F9BD9
:107FA000FECF5C9901C0A8958CB1089598E191BD70
:107FB00081BD0895F4DF803219F088E0F7DFFFCF4C
:107FC00084E1E9CF1F93182FEADF1150E9F7F2DFC0
:0E7FD0001F91089580E0EADFEE27FF27099455
:027FFE00040479
:0400000300007E007B
:00000001FF
