:101E000011248FE594E09EBF8DBF84B714BE81FF7F
:101E1000EDD085E08EBD82E08BB988E18AB986E895
:101E200080BD88E089B98EE0CDD0BD9A26E088E1FA
:101E30009EEF54E040E29DBD8CBD58BF08B602FE47
:101E4000FDCF38B3342738BBA8952150A1F788249B
:101E50009924CC24C394F5E0DF2EE1E1EE2E73E06B
:101E6000F72EA9D0813489F4A6D08983AFD0898197
:101E7000823819F484E09BD097C0813819F484E04B
:101E800096D092C083E093D08FC0823419F484E15D
:101E9000A5D08AC0853419F485E0A0D085C08535E9
:101EA00069F489D0082F10E086D090E0982E88241D
:101EB000802A912A880C991C89D076C0863529F40D
:101EC00084E08CD080E073D06FC0843609F042C0CB
:101ED00072D071D0B82E6FD080E088168CE0980652
:101EE00030F4F401F7BEE89500E610E002C000E629
:101EF00010E061D0F80181938F01BA94D1F7F0E03E
:101F00008F16FCE09F0618F0F401F7BEE8955ED04E
:101F100007B600FCFDCFF401A0E6B0E02C9130E064
:101F200011968C91119790E0982F8827822B932BF4
:101F300012960C01C7BEE89511243296A03AB1055D
:101F400069F7F401D7BEE89507B600FCFDCFE7BE00
:101F5000E8952AC08437B9F42ED02DD0A82E2BD0E6
:101F600035D0BA2CF40101C0F8018F010F5F1F4F6B
:101F700084911DD0BA94C1F70894811C911CAA9435
:101F80008A0C911C11C0853741F420D08EE10FD00E
:101F900083E90DD087E00BD007C0813521F488E0BC
:101FA00011D014D001C012D080E101D05ACF5D9B76
:101FB000FECF8CB908955F9BFECF5C9901C0A895B8
:101FC0008CB1089598E191BD81BD0895F4DF803210
:101FD00019F088E0F7DFFFCF84E1E9CF1F93182FD6
:101FE000EADF1150E9F7F2DF1F91089580E0EADFA0
:061FF000EE27FF27099413
:021FFE000404D9
:0400000300001E00DB
:00000001FF
